:03000000020006F5
:03005F0002000399
:0300030002028C6A
:10006200AC82AD83AEF0FFEC4D4E4F600F1CBCFF77
:10007200091DBDFF051EBEFF011F80EB22906D60B2
:10008200E4F5F01200627590FF900640E4F5F0127C
:1000920000627590137590039004B0E4F5F01200BD
:1000A20062759013759003900190E4F5F01200626E
:1000B200759013759003900190E4F5F0120062754B
:1000C2009012759002900190E4F5F0020062E582D0
:1000D200FFC4540FFE53060F74104EF5909001901A
:1000E200E4F5F0C007C006120062D0068E909001BF
:1000F20090E4F5F0120062D00753070F74104FF529
:10010200908F9022AD82AE83AFF08D828E838FF07E
:100112001209C2FC700122ECC4540F30E30244F015
:10012200FC740F5C4430F590900050E4F5F0C00789
:10013200C006C005120062D005D006D0078D828E9F
:10014200838FF01209C2FCC4540F30E30244F0FC66
:10015200740F5C4420F590900050E4F5F0C007C0A5
:1001620006C005120062D005D006D0078D828E83AC
:100172008FF01209C2FC740F5C4430F5909000506D
:10018200E4F5F0C007C006C005120062D005D00633
:10019200D0078D828E838FF01209C2FCA3AD82AE8E
:1001A20083740F5C4420F590900050E4F5F0C00792
:1001B200C006C005120062D005D006D00702010CAD
:1001C2007582281200D075820F1200D07582061235
:1001D20000D07582011200D07582021200D07582A1
:1001E200800200D07E8E7F0175088C75090F8E0A01
:1001F2008F0B750C14750D00850882850983C00765
:10020200C006120999A882A983D006D007E84960DE
:100212005175B0558E028F037C007D008A828B83DC
:100222008CF0EDC007C006C005C004C003C002C008
:1002320001C000120062D000D001D002D003D0046D
:10024200D00575B0AA8A828B838CF0EDC001C00004
:10025200120062D000D001D006D00718B8FF0119F1
:1002620080AB1EBEFF011FE50824FBF508E509343B
:10027200FFF509150A74FFB50A02150BC37402953E
:100282000AE4950B50030201F42212007F1201C20C
:100292009009E275F08012010690388075F001E451
:1002A2001200621201C29009E275F0801201067515
:1002B200B0FF90710075F002E41200627582801244
:1002C20000D09009F275F08012010675B0009038E6
:1002D2008075F001E412006275B0FF90388075F00D
:1002E20001E41200627582801200D0900A0375F058
:1002F2008012010675B00090710075F002E41200E0
:10030200627582C01200D0900A1475F08012010644
:1003120075B0AA90388075F001E41200627582C04F
:100322001200D0900A2575F08012010675B0559022
:10033200388075F001E41200627582C01200D0901C
:100342000A3675F0801201067F6475B055900190EF
:10035200E4F5F0C00712006275B0AA900190E4F5CE
:10036200F0120062D007DFE27582C01200D0900A5C
:100372004875F0801201067F1875B055900FA0E401
:10038200F5F0C00712006275B0AA900FA0E4F5F074
:10039200120062D007DFE27F0A75B055900190E447
:1003A200F5F0C00712006275B0AA900190E4F5F072
:1003B200120062D007DFE27582C01200D0900A59A3
:1003C20075F0801201067FDC75B0559000FAE4F5F5
:1003D200F0C00712006275B0AA9000FAE4F5F012BC
:1003E2000062D007DFE27582C01200D0900A6A75FF
:1003F200F0801201067EF77F0075B0559000A1E4EF
:10040200F5F0C007C00612006275B0AA9000A1E420
:10041200F5F0120062D006D0071EBEFF011FEE4F9C
:1004220070D77582C01200D0900A7B75F0801201DD
:10043200067E067F0175B055900098E4F5F0C0077E
:10044200C00612006275B0AA900098E4F5F012009E
:1004520062D006D0071EBEFF011FEE4F70D7758215
:10046200C01200D0900A8C75F0801201067E267FA1
:100472000175B055900088E4F5F0C007C00612007F
:100482006275B0AA900087E4F5F0120062D006D03F
:10049200071EBEFF011FEE4F70D77582C01200D03B
:1004A200900A9C75F0801201067E497F0175B05555
:1004B200900079E4F5F0C007C00612006275B0AA98
:1004C200900079E4F5F0120062D006D0071EBEFF5C
:1004D200011FEE4F70D77582C01200D0900AAC7522
:1004E200F0801201067E727F0175B05590006CE4B7
:1004F200F5F0C007C00612006275B0AA90006BE466
:10050200F5F0120062D006D0071EBEFF011FEE4FAB
:1005120070D77582C01200D0900ABC75F0801201AB
:10052200067E9F7F0175B055900060E4F5F0C0072C
:10053200C00612006275B0AA900060E4F5F01200E5
:1005420062D006D0071EBEFF011FEE4F70D7758224
:10055200C01200D0900ACC75F0801201067EB87FDE
:100562000175B05590005BE4F5F0C007C0061200BB
:100572006275B0AA90005BE4F5F0120062D006D07A
:10058200071EBEFF011FEE4F70D77582C01200D04A
:10059200900ADC75F08012010675B000909C40E470
:1005A200F5F01200627582C01200D0900AED75F06B
:1005B200801201067EA17F1D75B055900012E4F5F0
:1005C200F0C007C00612006275B0AA900012E4F5EE
:1005D200F0120062D006D0071EBEFF011FEE4F7060
:1005E200D77582801200D0900AFE75F08012010643
:1005F2007582C01200D0900B0E75F0801201067E3B
:10060200B87F0175B05590005BE4F5F0C007C006F5
:1006120012006275B0AA90005BE4F5F0120062D09D
:1006220006D0071EBEFF011FEE4F70D77E0B7F0262
:1006320075B05590004CE4F5F0C007C00612006298
:1006420075B0AA90004CE4F5F0120062D006D00713
:100652001EBEFF011FEE4F70D77E937F0275B0550D
:1006620090003CE4F5F0C007C00612006275B0AA23
:1006720090003CE4F5F0120062D006D0071EBEFFE7
:10068200011FEE4F70D77E707F0375B05590002C1E
:10069200E4F5F0C007C00612006275B0AA90002C03
:1006A200E4F5F0120062D006D0071EBEFF011FEE75
:1006B2004F70D77E6EFF75B05590005BE4F5F0C0C9
:1006C20007C00612006275B0AA90005BE4F5F01252
:1006D2000062D006D0071EBEFF011FEE4F70D77E0C
:1006E20083FF75B05590004CE4F5F0C007C00612C8
:1006F200006275B0AA90004CE4F5F0120062D006D8
:10070200D0071EBEFF011FEE4F70D77EA5FF75B04A
:100712005590003CE4F5F0C007C00612006275B0C7
:10072200AA90003CE4F5F0120062D006D0071EBE8B
:10073200FF011FEE4F70D77EDCFF75B05590002C85
:10074200E4F5F0C007C00612006275B0AA90002C52
:10075200E4F5F0120062D006D0071EBEFF011FEEC4
:100762004F70D77E6EFF75B05590005BE4F5F0C018
:1007720007C00612006275B0AA90005BE4F5F012A1
:100782000062D006D0071EBEFF011FEE4F70D77E5B
:1007920083FF75B05590004CE4F5F0C007C0061217
:1007A200006275B0AA90004CE4F5F0120062D00627
:1007B200D0071EBEFF011FEE4F70D77EA5FF75B09A
:1007C2005590003CE4F5F0C007C00612006275B017
:1007D200AA90003CE4F5F0120062D006D0071EBEDB
:1007E200FF011FEE4F70D77EDCFF75B05590002CD5
:1007F200E4F5F0C007C00612006275B0AA90002CA2
:10080200E4F5F0120062D006D0071EBEFF011FEE13
:100812004F70D77E6EFF75B05590005BE4F5F0C067
:1008220007C00612006275B0AA90005BE4F5F012F0
:100832000062D006D0071EBEFF011FEE4F70D77EAA
:1008420083FF75B05590004CE4F5F0C007C0061266
:10085200006275B0AA90004CE4F5F0120062D00676
:10086200D0071EBEFF011FEE4F70D77EA5FF75B0E9
:100872005590003CE4F5F0C007C00612006275B066
:10088200AA90003CE4F5F0120062D006D0071EBE2A
:10089200FF011FEE4F70D77EDCFF75B05590002C24
:1008A200E4F5F0C007C00612006275B0AA90002CF1
:1008B200E4F5F0120062D006D0071EBEFF011FEE63
:1008C2004F70D77E6EFF75B05590005BE4F5F0C0B7
:1008D20007C00612006275B0AA90005BE4F5F01240
:1008E2000062D006D0071EBEFF011FEE4F70D77EFA
:1008F20083FF75B05590004CE4F5F0C007C00612B6
:10090200006275B0AA90004CE4F5F0120062D006C5
:10091200D0071EBEFF011FEE4F70D77EA5FF75B038
:100922005590003CE4F5F0C007C00612006275B0B5
:10093200AA90003CE4F5F0120062D006D0071EBE79
:10094200FF011FEE4F70D77EDCFF75B05590002C73
:10095200E4F5F0C007C00612006275B0AA90002C40
:10096200E4F5F0120062D006D0071EBEFF011FEEB2
:100972004F70D77582801200D0900B1F75F08012D5
:1009820001067582C01200D0900B3075F080120102
:07099200061201E602029BC0
:1009E200205B5275684E6574204C6162735D200015
:1009F2005F496E74656C2038303531204D43555F48
:100A0200003E4C45442F417564696F2054657374F0
:100A12003C0028506F72742050333A2030784141A4
:100A220029200028506F72742050333A20307835D4
:100A320035292000503320726174653A207E3130AE
:100A420030487A202000503320726174653A207E4B
:100A52003130487A202000503320726174653A2088
:100A62007E323230487A2000503320726174653A07
:100A7200207E323437487A20005033207261746508
:100A82003A207E323632487A200050332072617426
:100A9200653A207E323934487A00503320726174CC
:100AA200653A207E333239487A00503320726174BD
:100AB200653A207E333730487A00503320726174B1
:100AC200653A207E343135487A00503320726174A1
:100AD200653A207E343430487A0057616974206662
:100AE2006F722069742E2E2E202000467275697452
:100AF200466C792032313637487A21007E43686F5E
:100B020072643A2041204D616A6F720041202D3E8D
:100B1200204323202D3E20452D3E20410046726574
:100B22007175656E63792053776565703A0031306F
:0E0B320030487A207E7E7E2031306B487A007B
:100999007A10E4FBFCE58225E0F582E58333F583F3
:1009A900EB33FBEC33FCEB950CF5F0EC950D4006C5
:0909B900FCABF0438201DADD22FF
:06003500E4787FF6D8FD1F
:100013007900E94400601B7A00900B40780175A0D9
:1000230000E493F2A308B8000205A0D9F4DAF2754C
:02003300A0FF2C
:10003B007800E84400600A790175A000E4F309D860
:10004B00FC7800E84400600C7900900001E4F0A318
:04005B00D8FCD9FAFA
:0D00060075810D1209DEE582600302000322
:1009C20020F71430F6148883A88220F507E6A8835E
:1009D20075830022E280F7E49322E02275820022EE
:00000001FF
