:03000000020006F5
:03005F0002000399
:0300030002029C5A
:10006200AC82AD83AEF0FFEC4D4E4F600F1CBCFF77
:10007200091DBDFF051EBEFF011F80EB22906D60B2
:10008200E4F5F01200627590FF900640E4F5F0127C
:1000920000627590137590039004B0E4F5F01200BD
:1000A20062759013759003900190E4F5F01200626E
:1000B200759013759003900190E4F5F0120062754B
:1000C2009012759002900190E4F5F0020062E582D0
:1000D200FFC4540FFE53060F74104EF59090001497
:1000E200E4F5F0C007C006120062D0068E909000C0
:1000F20014E4F5F0120062D00753070F74104FF5A5
:10010200908F9090003CE4F5F0020062AD82AE83E5
:10011200AFF08D828E838FF01207A1FC700122EC6A
:10012200C4540F30E30244F0FC740F5C4430F59089
:10013200900014E4F5F0C007C006C005120062D0BA
:1001420005D006D0078D828E838FF01207A1FCC4E2
:10015200540F30E30244F0FC740F5C4420F590909D
:100162000014E4F5F0C007C006C005120062D00515
:10017200D006D0078D828E838FF01207A1FC740FF8
:100182005C4430F590900014E4F5F0C007C006C05E
:1001920005120062D005D006D0078D828E838FF0C3
:1001A2001207A1FCA3AD82AE83740F5C4420F590CC
:1001B200900014E4F5F0C007C006C005120062D03A
:1001C20005D006D0070201147582281200D075826C
:1001D2000F1200D07582061200D07582011200D073
:1001E2007582021200D07582800200D0AF827E003A
:1001F200C3EE9F4001227D6E75B05590005BE4F521
:10020200F0C007C006C00512006275B0AA90005B7C
:10021200E4F5F0120062D005D006D007DDDA7D8B5E
:1002220075B055900048E4F5F0C007C006C005124D
:10023200006275B0AA900048E4F5F0120062D005A1
:10024200D006D007DDDA7DA575B05590003CE4F507
:10025200F0C007C006C00512006275B0AA90003C4B
:10026200E4F5F0120062D005D006D007DDDA7DDCBD
:1002720075B05590002CE4F5F0C007C006C0051219
:10028200006275B0AA90002CE4F5F0120062D0056D
:10029200D006D007DDDA0E0201F212007F1201CA87
:1002A2009007C175F08012010E90388075F001E45C
:1002B2001200621201CA9007C175F08012010E7518
:1002C200B0FF90388075F001E41200627582C012AE
:1002D20000D09007D175F08012010E90388075F031
:1002E20001E412006275B00090388075F001E412EA
:1002F200006275B0FF90388075F001E412006275FB
:1003020082801200D09007E275F08012010E75B063
:100312000090710075F002E41200627582C0120052
:10032200D09007F375F08012010E75B0AA90388054
:1003320075F001E41200627582C01200D0900804C8
:1003420075F08012010E75B05590388075F001E499
:100352001200627582C01200D090081575F08012EA
:10036200010E7E0A7F0075B055900190E4F5F0C051
:1003720007C00612006275B0AA900190E4F5F0126F
:100382000062D006D0071EBEFF011FEE4F70D77E5F
:1003920018FF75B055900FA0E4F5F0C007C0061223
:1003A200006275B0AA900FA0E4F5F0120062D006C8
:1003B200D0071EBEFF011FEE4F70D77582C012001C
:1003C200D090082675F08012010E7E647F0075B011
:1003D20055900190E4F5F0C007C00612006275B0B6
:1003E200AA900190E4F5F0120062D006D0071EBE7A
:1003F200FF011FEE4F70D77582C01200D0900837F0
:1004020075F08012010E7EE87F0375B055900028CA
:10041200E4F5F0C007C00612006275B0AA90002889
:10042200E4F5F0120062D006D0071EBEFF011FEEF7
:100432004F70D77582C01200D090084875F08012B4
:10044200010E7E107F2775B055900004E4F5F0C0D0
:1004520007C00612006275B0AA900004E4F5F0121B
:100462000062D006D0071EBEFF011FEE4F70D77587
:1004720082C01200D090085975F08012010E7EDC05
:100482007F0075B0559000B5E4F5F0C007C00612C4
:10049200006275B0AA9000B5E4F5F0120062D006D1
:1004A200D0071EBEFF011FEE4F70D77582C012002B
:1004B200D090086A75F08012010E7EF77F0075B049
:1004C200559000A1E4F5F0C007C00612006275B0B5
:1004D200AA9000A1E4F5F0120062D006D0071EBE79
:1004E200FF011FEE4F70D77582C01200D090087BBB
:1004F20075F08012010E7E067F0175B0559000984E
:10050200E4F5F0C007C00612006275B0AA90009828
:10051200E4F5F0120062D006D0071EBEFF011FEE06
:100522004F70D77582C01200D090088C75F080127F
:10053200010E7E267F0175B055900088E4F5F0C06B
:1005420007C00612006275B0AA900087E4F5F012A7
:100552000062D006D0071EBEFF011FEE4F70D77596
:1005620082C01200D090089D75F08012010E7E4963
:100572007F0175B055900079E4F5F0C007C006120E
:10058200006275B0AA900079E4F5F0120062D0061C
:10059200D0071EBEFF011FEE4F70D77582C012003A
:1005A200D09008AE75F08012010E7E727F0175B098
:1005B2005590006CE4F5F0C007C00612006275B0F9
:1005C200AA90006BE4F5F0120062D006D0071EBEBE
:1005D200FF011FEE4F70D77582C01200D09008BF86
:1005E20075F08012010E7E9F7F0175B055900060FC
:1005F200E4F5F0C007C00612006275B0AA90006070
:10060200E4F5F0120062D006D0071EBEFF011FEE15
:100612004F70D77582C01200D09008D075F080124A
:10062200010E7EB87F0175B05590005BE4F5F0C015
:1006320007C00612006275B0AA90005BE4F5F012E2
:100642000062D006D0071EBEFF011FEE4F70D775A5
:1006520082C01200D09008E175F08012010E75B0D0
:1006620000909C40E4F5F01200627582C01200D046
:100672009008F275F08012010E7EEE7F1075B05573
:10068200900012E4F5F0C007C00612006275B0AA2D
:10069200900012E4F5F0120062D006D0071EBEFFF1
:1006A200011FEE4F70D77582801200D0900903753A
:1006B200F08012010E7582C01200D090091375F0FD
:1006C2008012010E7EB87F0175B05590005BE4F593
:1006D200F0C007C00612006275B0AA90005BE4F594
:1006E200F0120062D006D0071EBEFF011FEE4F704F
:1006F200D77E2A7F0275B055900048E4F5F0C00716
:10070200C00612006275B0AA900048E4F5F012002B
:1007120062D006D0071EBEFF011FEE4F70D77E9338
:100722007F0275B05590003CE4F5F0C007C0061298
:10073200006275B0AA90003CE4F5F0120062D006A7
:10074200D0071EBEFF011FEE4F70D77E707F03756C
:10075200B05590002CE4F5F0C007C0061200627597
:10076200B0AA90002CE4F5F0120062D006D0071E69
:10077200BEFF011FEE4F70D77582041201EE758223
:10078200801200D090092475F08012010E7582C08B
:0F0792001200D090093575F08012010E0202ABF3
:1007C100205B5275684E6574204C6162735D200038
:1007D1005F496E74656C2038303531204D43555F6B
:1007E100003E4C45442F417564696F205465737414
:1007F1003C0028506F72742050333A2030784141C8
:1008010029200028506F72742050333A20307835F7
:1008110035292000503320726174653A207E3130D1
:10082100487A202000503320726174653A207E316D
:100831003030487A2000503320726174653A207E4E
:1008410031303030487A00503320726174653A207B
:100851007E31306B487A2000503320726174653AE2
:1008610020323230487A7E41005033207261746503
:100871003A20323437487A7E420050332072617414
:10088100653A20323632487A7E4300503320726115
:1008910074653A20323934487A7E440050332072EC
:1008A1006174653A20333239487A7E4500503320ED
:1008B100726174653A20333730487A7E460050338E
:1008C10020726174653A20343135487A7E47005090
:1008D1003320726174653A20343430487A7E4100A5
:1008E1005761697420666F722069742E2E2E202044
:1008F100004672756974466C792032313637487A10
:1009010021007E43686F72643A2041204D616A6F15
:10091100720041202D3E204323202D3E20452D3EB7
:100921002041002020202D5468657C456E642D20D7
:100931002020200068747470733A2F2F7275656CD3
:050941002E696F20008B
:06003500E4787FF6D8FD1F
:100013007900E94400601B7A00900946780175A0D5
:1000230000E493F2A308B8000205A0D9F4DAF2754C
:02003300A0FF2C
:10003B007800E84400600A790175A000E4F309D860
:10004B00FC7800E84400600C7900900001E4F0A318
:04005B00D8FCD9FAFA
:0D0006007581071207BDE58260030200034B
:1007A10020F71430F6148883A88220F507E6A88381
:1007B10075830022E280F7E49322E0227582002211
:00000001FF
